{
  "contractName": "PaymentProcessor",
  "abi": [
    {
      "inputs": [
        {
          "internalType": "address",
          "name": "_admin",
          "type": "address"
        },
        {
          "internalType": "address",
          "name": "_mockDai",
          "type": "address"
        }
      ],
      "stateMutability": "nonpayable",
      "type": "constructor"
    },
    {
      "anonymous": false,
      "inputs": [
        {
          "indexed": false,
          "internalType": "address",
          "name": "payer",
          "type": "address"
        },
        {
          "indexed": false,
          "internalType": "uint256",
          "name": "amount",
          "type": "uint256"
        },
        {
          "indexed": false,
          "internalType": "uint256",
          "name": "paymentId",
          "type": "uint256"
        },
        {
          "indexed": false,
          "internalType": "uint256",
          "name": "date",
          "type": "uint256"
        }
      ],
      "name": "PaymentDone",
      "type": "event"
    },
    {
      "inputs": [],
      "name": "admin",
      "outputs": [
        {
          "internalType": "address",
          "name": "",
          "type": "address"
        }
      ],
      "stateMutability": "view",
      "type": "function",
      "constant": true
    },
    {
      "inputs": [],
      "name": "mockDai",
      "outputs": [
        {
          "internalType": "contract IERC20",
          "name": "",
          "type": "address"
        }
      ],
      "stateMutability": "view",
      "type": "function",
      "constant": true
    },
    {
      "inputs": [
        {
          "internalType": "uint256",
          "name": "_amount",
          "type": "uint256"
        },
        {
          "internalType": "uint256",
          "name": "_paymentId",
          "type": "uint256"
        }
      ],
      "name": "pay",
      "outputs": [],
      "stateMutability": "nonpayable",
      "type": "function"
    }
  ],
  "bytecode": "0x608060405234801561001057600080fd5b50604051610690380380610690833981810160405281019061003291906100cf565b816000806101000a81548173ffffffffffffffffffffffffffffffffffffffff021916908373ffffffffffffffffffffffffffffffffffffffff16021790555080600160006101000a81548173ffffffffffffffffffffffffffffffffffffffff021916908373ffffffffffffffffffffffffffffffffffffffff1602179055505050610154565b6000815190506100c98161013d565b92915050565b600080604083850312156100e257600080fd5b60006100f0858286016100ba565b9250506020610101858286016100ba565b9150509250929050565b60006101168261011d565b9050919050565b600073ffffffffffffffffffffffffffffffffffffffff82169050919050565b6101468161010b565b811461015157600080fd5b50565b61052d806101636000396000f3fe608060405234801561001057600080fd5b50600436106100415760003560e01c806325979e0314610046578063ef48eee614610064578063f851a44014610080575b600080fd5b61004e61009e565b60405161005b9190610411565b60405180910390f35b61007e600480360381019061007991906102d1565b6100c4565b005b61008861025a565b604051610095919061037a565b60405180910390f35b600160009054906101000a900473ffffffffffffffffffffffffffffffffffffffff1681565b600073ffffffffffffffffffffffffffffffffffffffff163373ffffffffffffffffffffffffffffffffffffffff1614156100fe57600080fd5b600033905060008311610146576040517f08c379a000000000000000000000000000000000000000000000000000000000815260040161013d9061042c565b60405180910390fd5b600160009054906101000a900473ffffffffffffffffffffffffffffffffffffffff1673ffffffffffffffffffffffffffffffffffffffff166323b872dd8260008054906101000a900473ffffffffffffffffffffffffffffffffffffffff16866040518463ffffffff1660e01b81526004016101c593929190610395565b602060405180830381600087803b1580156101df57600080fd5b505af11580156101f3573d6000803e3d6000fd5b505050506040513d601f19601f8201168201806040525081019061021791906102a8565b507f78eaebe37a28490ff43ed0e95bdc47de1587156ac0069b652e1d2d9f42464e988184844260405161024d94939291906103cc565b60405180910390a1505050565b60008054906101000a900473ffffffffffffffffffffffffffffffffffffffff1681565b60008151905061028d816104c9565b92915050565b6000813590506102a2816104e0565b92915050565b6000602082840312156102ba57600080fd5b60006102c88482850161027e565b91505092915050565b600080604083850312156102e457600080fd5b60006102f285828601610293565b925050602061030385828601610293565b9150509250929050565b6103168161045d565b82525050565b610325816104a5565b82525050565b600061033860128361044c565b91507f416d6f756e742063616e6e6f74206265203000000000000000000000000000006000830152602082019050919050565b6103748161049b565b82525050565b600060208201905061038f600083018461030d565b92915050565b60006060820190506103aa600083018661030d565b6103b7602083018561030d565b6103c4604083018461036b565b949350505050565b60006080820190506103e1600083018761030d565b6103ee602083018661036b565b6103fb604083018561036b565b610408606083018461036b565b95945050505050565b6000602082019050610426600083018461031c565b92915050565b600060208201905081810360008301526104458161032b565b9050919050565b600082825260208201905092915050565b60006104688261047b565b9050919050565b60008115159050919050565b600073ffffffffffffffffffffffffffffffffffffffff82169050919050565b6000819050919050565b60006104b0826104b7565b9050919050565b60006104c28261047b565b9050919050565b6104d28161046f565b81146104dd57600080fd5b50565b6104e98161049b565b81146104f457600080fd5b5056fea2646970667358221220e51905b1343eb1da0ad91de3b355dde35fbccd7b365d409b2483671246b5f14264736f6c63430008000033",
  "immutableReferences": {},
  "source": "/* Solidity Version have to be compatible with the OpenZepplin Version */\r\npragma solidity ^0.8.0;\r\n\r\n/* Importing an Interface of ERC20 Token from OpenZepplin that is needed to manipulate ERC20 Tokens */\r\nimport \"@openzeppelin/contracts/token/ERC20/IERC20.sol\";\r\n\r\ncontract PaymentProcessor {\r\n    address public admin;\r\n    /* Pointer to DAI Token*/\r\n    IERC20 public mockDai;\r\n\r\n    /* Constructor is run when Smart Contract is deployed - just one Time */\r\n    constructor(address _admin, address _mockDai) public {\r\n        admin = _admin;\r\n        /* Passing the Address to the imported Smart Contract to interact with DAI Coin */\r\n        mockDai = IERC20(_mockDai);\r\n    }\r\n\r\n    event PaymentDone(\r\n        address payer,\r\n        uint amount,\r\n        uint paymentId,\r\n        uint date\r\n    );\r\n\r\n    /* Function to do Payment if an Item is purchased  */\r\n    /* Keyword external to call this Method from Outside the Smart Contract */\r\n    function pay(uint _amount, uint _paymentId) external {\r\n        /* Requirements */\r\n        /* Make sure Payer Address exists */\r\n        require(msg.sender != address(0x0));\r\n        address payer = msg.sender;\r\n        /* Make Amount is greater then 0 */\r\n        require(_amount > 0, \"Amount cannot be 0\");\r\n        /* ERC20 Method that allow to transfer a Amount of Token from an Account to another */\r\n        mockDai.transferFrom(payer, admin, _amount);\r\n        /* Emit Event */\r\n        emit PaymentDone(payer, _amount, _paymentId, block.timestamp);\r\n    }\r\n}\r\n",
  "sourcePath": "C:/Users/stein/Downloads/SolidityEcommerceDAppERC20Payment/contracts/PaymentProcessor.sol",
  "compiler": {
    "name": "solc",
    "version": "0.8.0+commit.c7dfd78e.Emscripten.clang"
  },
  "schemaVersion": "3.4.1",
  "updatedAt": "2021-06-24T08:16:36.680Z",
  "networkType": "ethereum",
  "devdoc": {
    "kind": "dev",
    "methods": {},
    "version": 1
  },
  "userdoc": {
    "kind": "user",
    "methods": {},
    "version": 1
  }
}